{
  "_format": "hh-sol-artifact-1",
  "contractName": "GreenHydrogenSBT",
  "sourceName": "contracts/GreenHydrogenSBT.sol",
  "abi": [
    {
      "inputs": [
        {
          "internalType": "string",
          "name": "name",
          "type": "string"
        },
        {
          "internalType": "string",
          "name": "symbol",
          "type": "string"
        },
        {
          "internalType": "address",
          "name": "_batchRegistry",
          "type": "address"
        },
        {
          "internalType": "address",
          "name": "_complianceVerifier",
          "type": "address"
        }
      ],
      "stateMutability": "nonpayable",
      "type": "constructor"
    },
    {
      "inputs": [
        {
          "internalType": "address",
          "name": "sender",
          "type": "address"
        },
        {
          "internalType": "uint256",
          "name": "tokenId",
          "type": "uint256"
        },
        {
          "internalType": "address",
          "name": "owner",
          "type": "address"
        }
      ],
      "name": "ERC721IncorrectOwner",
      "type": "error"
    },
    {
      "inputs": [
        {
          "internalType": "address",
          "name": "operator",
          "type": "address"
        },
        {
          "internalType": "uint256",
          "name": "tokenId",
          "type": "uint256"
        }
      ],
      "name": "ERC721InsufficientApproval",
      "type": "error"
    },
    {
      "inputs": [
        {
          "internalType": "address",
          "name": "approver",
          "type": "address"
        }
      ],
      "name": "ERC721InvalidApprover",
      "type": "error"
    },
    {
      "inputs": [
        {
          "internalType": "address",
          "name": "operator",
          "type": "address"
        }
      ],
      "name": "ERC721InvalidOperator",
      "type": "error"
    },
    {
      "inputs": [
        {
          "internalType": "address",
          "name": "owner",
          "type": "address"
        }
      ],
      "name": "ERC721InvalidOwner",
      "type": "error"
    },
    {
      "inputs": [
        {
          "internalType": "address",
          "name": "receiver",
          "type": "address"
        }
      ],
      "name": "ERC721InvalidReceiver",
      "type": "error"
    },
    {
      "inputs": [
        {
          "internalType": "address",
          "name": "sender",
          "type": "address"
        }
      ],
      "name": "ERC721InvalidSender",
      "type": "error"
    },
    {
      "inputs": [
        {
          "internalType": "uint256",
          "name": "tokenId",
          "type": "uint256"
        }
      ],
      "name": "ERC721NonexistentToken",
      "type": "error"
    },
    {
      "inputs": [
        {
          "internalType": "address",
          "name": "owner",
          "type": "address"
        }
      ],
      "name": "OwnableInvalidOwner",
      "type": "error"
    },
    {
      "inputs": [
        {
          "internalType": "address",
          "name": "account",
          "type": "address"
        }
      ],
      "name": "OwnableUnauthorizedAccount",
      "type": "error"
    },
    {
      "anonymous": false,
      "inputs": [
        {
          "indexed": true,
          "internalType": "address",
          "name": "owner",
          "type": "address"
        },
        {
          "indexed": true,
          "internalType": "address",
          "name": "approved",
          "type": "address"
        },
        {
          "indexed": true,
          "internalType": "uint256",
          "name": "tokenId",
          "type": "uint256"
        }
      ],
      "name": "Approval",
      "type": "event"
    },
    {
      "anonymous": false,
      "inputs": [
        {
          "indexed": true,
          "internalType": "address",
          "name": "owner",
          "type": "address"
        },
        {
          "indexed": true,
          "internalType": "address",
          "name": "operator",
          "type": "address"
        },
        {
          "indexed": false,
          "internalType": "bool",
          "name": "approved",
          "type": "bool"
        }
      ],
      "name": "ApprovalForAll",
      "type": "event"
    },
    {
      "anonymous": false,
      "inputs": [
        {
          "indexed": false,
          "internalType": "uint256",
          "name": "_fromTokenId",
          "type": "uint256"
        },
        {
          "indexed": false,
          "internalType": "uint256",
          "name": "_toTokenId",
          "type": "uint256"
        }
      ],
      "name": "BatchMetadataUpdate",
      "type": "event"
    },
    {
      "anonymous": false,
      "inputs": [
        {
          "indexed": true,
          "internalType": "address",
          "name": "oldRegistry",
          "type": "address"
        },
        {
          "indexed": true,
          "internalType": "address",
          "name": "newRegistry",
          "type": "address"
        }
      ],
      "name": "BatchRegistryUpdated",
      "type": "event"
    },
    {
      "anonymous": false,
      "inputs": [
        {
          "indexed": true,
          "internalType": "uint256",
          "name": "tokenId",
          "type": "uint256"
        },
        {
          "indexed": false,
          "internalType": "address",
          "name": "consumedBy",
          "type": "address"
        },
        {
          "indexed": false,
          "internalType": "uint256",
          "name": "timestamp",
          "type": "uint256"
        }
      ],
      "name": "CertificateConsumed",
      "type": "event"
    },
    {
      "anonymous": false,
      "inputs": [
        {
          "indexed": true,
          "internalType": "uint256",
          "name": "tokenId",
          "type": "uint256"
        },
        {
          "indexed": true,
          "internalType": "bytes32",
          "name": "batchId",
          "type": "bytes32"
        },
        {
          "indexed": true,
          "internalType": "address",
          "name": "producer",
          "type": "address"
        },
        {
          "indexed": false,
          "internalType": "uint256",
          "name": "timestamp",
          "type": "uint256"
        },
        {
          "indexed": false,
          "internalType": "uint256",
          "name": "sizeKg",
          "type": "uint256"
        },
        {
          "indexed": false,
          "internalType": "bool",
          "name": "isCompliant",
          "type": "bool"
        }
      ],
      "name": "CertificateMinted",
      "type": "event"
    },
    {
      "anonymous": false,
      "inputs": [
        {
          "indexed": true,
          "internalType": "address",
          "name": "oldVerifier",
          "type": "address"
        },
        {
          "indexed": true,
          "internalType": "address",
          "name": "newVerifier",
          "type": "address"
        }
      ],
      "name": "ComplianceVerifierUpdated",
      "type": "event"
    },
    {
      "anonymous": false,
      "inputs": [
        {
          "indexed": false,
          "internalType": "uint256",
          "name": "_tokenId",
          "type": "uint256"
        }
      ],
      "name": "MetadataUpdate",
      "type": "event"
    },
    {
      "anonymous": false,
      "inputs": [
        {
          "indexed": true,
          "internalType": "address",
          "name": "previousOwner",
          "type": "address"
        },
        {
          "indexed": true,
          "internalType": "address",
          "name": "newOwner",
          "type": "address"
        }
      ],
      "name": "OwnershipTransferred",
      "type": "event"
    },
    {
      "anonymous": false,
      "inputs": [
        {
          "indexed": true,
          "internalType": "address",
          "name": "from",
          "type": "address"
        },
        {
          "indexed": true,
          "internalType": "address",
          "name": "to",
          "type": "address"
        },
        {
          "indexed": true,
          "internalType": "uint256",
          "name": "tokenId",
          "type": "uint256"
        }
      ],
      "name": "Transfer",
      "type": "event"
    },
    {
      "inputs": [
        {
          "internalType": "address",
          "name": "to",
          "type": "address"
        },
        {
          "internalType": "uint256",
          "name": "tokenId",
          "type": "uint256"
        }
      ],
      "name": "approve",
      "outputs": [],
      "stateMutability": "nonpayable",
      "type": "function"
    },
    {
      "inputs": [
        {
          "internalType": "address",
          "name": "owner",
          "type": "address"
        }
      ],
      "name": "balanceOf",
      "outputs": [
        {
          "internalType": "uint256",
          "name": "",
          "type": "uint256"
        }
      ],
      "stateMutability": "view",
      "type": "function"
    },
    {
      "inputs": [],
      "name": "batchRegistry",
      "outputs": [
        {
          "internalType": "address",
          "name": "",
          "type": "address"
        }
      ],
      "stateMutability": "view",
      "type": "function"
    },
    {
      "inputs": [
        {
          "internalType": "bytes32",
          "name": "",
          "type": "bytes32"
        }
      ],
      "name": "batchToTokenId",
      "outputs": [
        {
          "internalType": "uint256",
          "name": "",
          "type": "uint256"
        }
      ],
      "stateMutability": "view",
      "type": "function"
    },
    {
      "inputs": [
        {
          "internalType": "uint256",
          "name": "tokenId",
          "type": "uint256"
        }
      ],
      "name": "calculateCarbonSavings",
      "outputs": [
        {
          "internalType": "uint256",
          "name": "",
          "type": "uint256"
        }
      ],
      "stateMutability": "view",
      "type": "function"
    },
    {
      "inputs": [
        {
          "internalType": "uint256",
          "name": "",
          "type": "uint256"
        }
      ],
      "name": "certificateData",
      "outputs": [
        {
          "internalType": "bytes32",
          "name": "batchId",
          "type": "bytes32"
        },
        {
          "internalType": "address",
          "name": "producer",
          "type": "address"
        },
        {
          "internalType": "uint256",
          "name": "timestamp",
          "type": "uint256"
        },
        {
          "internalType": "uint256",
          "name": "sizeKg",
          "type": "uint256"
        },
        {
          "internalType": "uint256",
          "name": "ghgEmissions",
          "type": "uint256"
        },
        {
          "internalType": "uint256",
          "name": "waterConsumption",
          "type": "uint256"
        },
        {
          "internalType": "bool",
          "name": "isCompliant",
          "type": "bool"
        },
        {
          "internalType": "bytes32",
          "name": "complianceHash",
          "type": "bytes32"
        },
        {
          "internalType": "bool",
          "name": "isConsumed",
          "type": "bool"
        },
        {
          "internalType": "uint256",
          "name": "consumedAt",
          "type": "uint256"
        },
        {
          "internalType": "address",
          "name": "consumedBy",
          "type": "address"
        }
      ],
      "stateMutability": "view",
      "type": "function"
    },
    {
      "inputs": [],
      "name": "complianceVerifier",
      "outputs": [
        {
          "internalType": "address",
          "name": "",
          "type": "address"
        }
      ],
      "stateMutability": "view",
      "type": "function"
    },
    {
      "inputs": [
        {
          "internalType": "uint256",
          "name": "tokenId",
          "type": "uint256"
        }
      ],
      "name": "consumeCertificate",
      "outputs": [],
      "stateMutability": "nonpayable",
      "type": "function"
    },
    {
      "inputs": [
        {
          "internalType": "uint256",
          "name": "tokenId",
          "type": "uint256"
        }
      ],
      "name": "getApproved",
      "outputs": [
        {
          "internalType": "address",
          "name": "",
          "type": "address"
        }
      ],
      "stateMutability": "view",
      "type": "function"
    },
    {
      "inputs": [
        {
          "internalType": "uint256",
          "name": "tokenId",
          "type": "uint256"
        }
      ],
      "name": "getCertificateData",
      "outputs": [
        {
          "internalType": "bytes32",
          "name": "",
          "type": "bytes32"
        },
        {
          "internalType": "address",
          "name": "",
          "type": "address"
        },
        {
          "internalType": "uint256",
          "name": "",
          "type": "uint256"
        },
        {
          "internalType": "uint256",
          "name": "",
          "type": "uint256"
        },
        {
          "internalType": "uint256",
          "name": "",
          "type": "uint256"
        },
        {
          "internalType": "uint256",
          "name": "",
          "type": "uint256"
        },
        {
          "internalType": "bool",
          "name": "",
          "type": "bool"
        },
        {
          "internalType": "bytes32",
          "name": "",
          "type": "bytes32"
        },
        {
          "internalType": "bool",
          "name": "",
          "type": "bool"
        },
        {
          "internalType": "uint256",
          "name": "",
          "type": "uint256"
        },
        {
          "internalType": "address",
          "name": "",
          "type": "address"
        }
      ],
      "stateMutability": "view",
      "type": "function"
    },
    {
      "inputs": [
        {
          "internalType": "address",
          "name": "owner",
          "type": "address"
        }
      ],
      "name": "getOwnerCertificates",
      "outputs": [
        {
          "internalType": "uint256[]",
          "name": "",
          "type": "uint256[]"
        }
      ],
      "stateMutability": "view",
      "type": "function"
    },
    {
      "inputs": [
        {
          "internalType": "address",
          "name": "producer",
          "type": "address"
        }
      ],
      "name": "getProducerCertificates",
      "outputs": [
        {
          "internalType": "uint256[]",
          "name": "",
          "type": "uint256[]"
        }
      ],
      "stateMutability": "view",
      "type": "function"
    },
    {
      "inputs": [
        {
          "internalType": "bytes32",
          "name": "batchId",
          "type": "bytes32"
        }
      ],
      "name": "getTokenIdForBatch",
      "outputs": [
        {
          "internalType": "uint256",
          "name": "",
          "type": "uint256"
        }
      ],
      "stateMutability": "view",
      "type": "function"
    },
    {
      "inputs": [],
      "name": "getTotalCertificates",
      "outputs": [
        {
          "internalType": "uint256",
          "name": "",
          "type": "uint256"
        }
      ],
      "stateMutability": "view",
      "type": "function"
    },
    {
      "inputs": [
        {
          "internalType": "address",
          "name": "owner",
          "type": "address"
        },
        {
          "internalType": "address",
          "name": "operator",
          "type": "address"
        }
      ],
      "name": "isApprovedForAll",
      "outputs": [
        {
          "internalType": "bool",
          "name": "",
          "type": "bool"
        }
      ],
      "stateMutability": "view",
      "type": "function"
    },
    {
      "inputs": [
        {
          "internalType": "uint256",
          "name": "tokenId",
          "type": "uint256"
        }
      ],
      "name": "isValidCertificate",
      "outputs": [
        {
          "internalType": "bool",
          "name": "",
          "type": "bool"
        }
      ],
      "stateMutability": "view",
      "type": "function"
    },
    {
      "inputs": [
        {
          "internalType": "bytes32",
          "name": "batchId",
          "type": "bytes32"
        },
        {
          "internalType": "address",
          "name": "producer",
          "type": "address"
        },
        {
          "internalType": "string",
          "name": "_tokenURI",
          "type": "string"
        }
      ],
      "name": "mintCertificate",
      "outputs": [
        {
          "internalType": "uint256",
          "name": "",
          "type": "uint256"
        }
      ],
      "stateMutability": "nonpayable",
      "type": "function"
    },
    {
      "inputs": [],
      "name": "name",
      "outputs": [
        {
          "internalType": "string",
          "name": "",
          "type": "string"
        }
      ],
      "stateMutability": "view",
      "type": "function"
    },
    {
      "inputs": [],
      "name": "owner",
      "outputs": [
        {
          "internalType": "address",
          "name": "",
          "type": "address"
        }
      ],
      "stateMutability": "view",
      "type": "function"
    },
    {
      "inputs": [
        {
          "internalType": "address",
          "name": "",
          "type": "address"
        },
        {
          "internalType": "uint256",
          "name": "",
          "type": "uint256"
        }
      ],
      "name": "ownerCertificates",
      "outputs": [
        {
          "internalType": "uint256",
          "name": "",
          "type": "uint256"
        }
      ],
      "stateMutability": "view",
      "type": "function"
    },
    {
      "inputs": [
        {
          "internalType": "uint256",
          "name": "tokenId",
          "type": "uint256"
        }
      ],
      "name": "ownerOf",
      "outputs": [
        {
          "internalType": "address",
          "name": "",
          "type": "address"
        }
      ],
      "stateMutability": "view",
      "type": "function"
    },
    {
      "inputs": [
        {
          "internalType": "address",
          "name": "",
          "type": "address"
        },
        {
          "internalType": "uint256",
          "name": "",
          "type": "uint256"
        }
      ],
      "name": "producerCertificates",
      "outputs": [
        {
          "internalType": "uint256",
          "name": "",
          "type": "uint256"
        }
      ],
      "stateMutability": "view",
      "type": "function"
    },
    {
      "inputs": [],
      "name": "renounceOwnership",
      "outputs": [],
      "stateMutability": "nonpayable",
      "type": "function"
    },
    {
      "inputs": [
        {
          "internalType": "address",
          "name": "from",
          "type": "address"
        },
        {
          "internalType": "address",
          "name": "to",
          "type": "address"
        },
        {
          "internalType": "uint256",
          "name": "tokenId",
          "type": "uint256"
        }
      ],
      "name": "safeTransferFrom",
      "outputs": [],
      "stateMutability": "nonpayable",
      "type": "function"
    },
    {
      "inputs": [
        {
          "internalType": "address",
          "name": "from",
          "type": "address"
        },
        {
          "internalType": "address",
          "name": "to",
          "type": "address"
        },
        {
          "internalType": "uint256",
          "name": "tokenId",
          "type": "uint256"
        },
        {
          "internalType": "bytes",
          "name": "data",
          "type": "bytes"
        }
      ],
      "name": "safeTransferFrom",
      "outputs": [],
      "stateMutability": "nonpayable",
      "type": "function"
    },
    {
      "inputs": [
        {
          "internalType": "address",
          "name": "operator",
          "type": "address"
        },
        {
          "internalType": "bool",
          "name": "approved",
          "type": "bool"
        }
      ],
      "name": "setApprovalForAll",
      "outputs": [],
      "stateMutability": "nonpayable",
      "type": "function"
    },
    {
      "inputs": [
        {
          "internalType": "bytes4",
          "name": "interfaceId",
          "type": "bytes4"
        }
      ],
      "name": "supportsInterface",
      "outputs": [
        {
          "internalType": "bool",
          "name": "",
          "type": "bool"
        }
      ],
      "stateMutability": "view",
      "type": "function"
    },
    {
      "inputs": [],
      "name": "symbol",
      "outputs": [
        {
          "internalType": "string",
          "name": "",
          "type": "string"
        }
      ],
      "stateMutability": "view",
      "type": "function"
    },
    {
      "inputs": [
        {
          "internalType": "uint256",
          "name": "tokenId",
          "type": "uint256"
        }
      ],
      "name": "tokenURI",
      "outputs": [
        {
          "internalType": "string",
          "name": "",
          "type": "string"
        }
      ],
      "stateMutability": "view",
      "type": "function"
    },
    {
      "inputs": [
        {
          "internalType": "address",
          "name": "from",
          "type": "address"
        },
        {
          "internalType": "address",
          "name": "to",
          "type": "address"
        },
        {
          "internalType": "uint256",
          "name": "tokenId",
          "type": "uint256"
        }
      ],
      "name": "transferFrom",
      "outputs": [],
      "stateMutability": "nonpayable",
      "type": "function"
    },
    {
      "inputs": [
        {
          "internalType": "address",
          "name": "newOwner",
          "type": "address"
        }
      ],
      "name": "transferOwnership",
      "outputs": [],
      "stateMutability": "nonpayable",
      "type": "function"
    },
    {
      "inputs": [
        {
          "internalType": "address",
          "name": "newRegistry",
          "type": "address"
        }
      ],
      "name": "updateBatchRegistry",
      "outputs": [],
      "stateMutability": "nonpayable",
      "type": "function"
    },
    {
      "inputs": [
        {
          "internalType": "address",
          "name": "newVerifier",
          "type": "address"
        }
      ],
      "name": "updateComplianceVerifier",
      "outputs": [],
      "stateMutability": "nonpayable",
      "type": "function"
    }
  ],
  "bytecode": "0x6040608081523462000430576200251290813803806200001f8162000434565b9384398201608083820312620004305782516001600160401b039390848111620004305782620000519183016200045a565b93602092838301519082821162000430576200006f9184016200045a565b946200008b606062000083878601620004ca565b9401620004ca565b9181518181116200034e575f54906001938483811c9316801562000425575b888410146200032f578190601f93848111620003d2575b5088908483116001146200036e575f9262000362575b50505f19600383901b1c191690841b175f555b87519182116200034e5782548381811c9116801562000343575b878210146200032f57818111620002e7575b50859082116001146200028357819293949596975f9262000277575b50505f19600383901b1c191690821b1790555b3315620002605760078054336001600160a01b031980831682179093558651929492936001600160a01b0393909284929083167f8be0079c531659141344cd1fd0a4f28419497f9722a3daafe3b4186f6b6457e05f80a3169283156200021e575016928315620001cf575081600d541617600d55600e541617600e55516120329081620004e08239f35b60849085519062461bcd60e51b82526004820152602360248201527f496e76616c696420636f6d706c69616e6365207665726966696572206164647260448201526265737360e81b6064820152fd5b62461bcd60e51b815260048101869052601e60248201527f496e76616c6964206261746368207265676973747279206164647265737300006044820152606490fd5b8351631e4fbdf760e01b81525f6004820152602490fd5b015190505f8062000132565b601f19821690835f52865f20915f5b818110620002d15750988385969798999a10620002b8575b505050811b01905562000145565b01515f1960f88460031b161c191690555f8080620002aa565b8a83015184559285019291880191880162000292565b835f52865f208280850160051c82019289861062000325575b0160051c019084905b8281106200031957505062000116565b5f815501849062000309565b9250819262000300565b634e487b7160e01b5f52602260045260245ffd5b90607f169062000104565b634e487b7160e01b5f52604160045260245ffd5b015190505f80620000d7565b90869350601f198316915f80528a5f20925f5b8c828210620003bb5750508411620003a2575b505050811b015f55620000ea565b01515f1960f88460031b161c191690555f808062000394565b8385015186558a9790950194938401930162000381565b9091505f8052885f208480850160051c8201928b86106200041b575b918891869594930160051c01915b8281106200040c575050620000c1565b5f8155859450889101620003fc565b92508192620003ee565b92607f1692620000aa565b5f80fd5b6040519190601f01601f191682016001600160401b038111838210176200034e57604052565b919080601f84011215620004305782516001600160401b0381116200034e5760209062000490601f8201601f1916830162000434565b9281845282828701011162000430575f5b818110620004b65750825f9394955001015290565b8581018301518482018401528201620004a1565b51906001600160a01b0382168203620004305756fe6080806040526004361015610012575f80fd5b5f3560e01c90816301ffc9a7146116a45750806306fdde03146115fd578063081812fc146115c1578063095ea7b3146114e05780630a0052171461146a5780632170a6c41461137057806323b872dd14611359578063255883961461127957806329bca8d01461123057806331494bbb1461114557806338a40cb514610cc357806342842e0e1461111e5780635c745aae146110f65780636352211e146110c657806370a0823114611070578063715018a6146110155780637843bb7914610ff857806379b08c5b14610f765780637b0e275414610ec25780638024818a14610e4a5780638da5cb5b14610e22578063917bb1c114610dcb57806395d89b4114610ced578063974f21a514610cc35780639b38d5e714610c0f578063a22cb46514610b47578063aa40b77b14610b1f578063b88d4fde14610abd578063c87b56dd14610a86578063df847d7b14610941578063e931e71414610264578063e985e9c5146102125763f2fde38b14610187575f80fd5b3461020e57602036600319011261020e576101a061176f565b6101a8611e87565b6001600160a01b039081169081156101f657600754826001600160601b0360a01b821617600755167f8be0079c531659141344cd1fd0a4f28419497f9722a3daafe3b4186f6b6457e05f80a3005b604051631e4fbdf760e01b81525f6004820152602490fd5b5f80fd5b3461020e57604036600319011261020e5761022b61176f565b610233611785565b9060018060a01b038091165f52600560205260405f2091165f52602052602060ff60405f2054166040519015158152f35b3461020e57606036600319011261020e5761027d611785565b60443567ffffffffffffffff811161020e573660238201121561020e576102ae903690602481600401359101611905565b906102b7611e87565b6004355f52600a60205260405f20546108ea576001600160a01b038116156108a5576008545f19811461089157600181016008556040516102f7816118ab565b5f808252600183018152600260205260409020546001600160a01b03168015159081610855575b6001600160a01b0385165f8181526003602090815260408083208054600190810190915588018084526002909252822080546001600160a01b0319168417905592907fddf252ad1be2c89b69c2b068fc378daa952ba7f163c4a11628f55a4df523b3ef9080a461083d57823b610708575b50600181015f52600660205260405f20835167ffffffffffffffff8111610646576103ba825461193b565b601f81116106c7575b50602094601f8211600114610665579481929394955f9261065a575b50508160011b915f199060031b1c19161790555b7ff8e1a15aba9398e019f0b49df1a4fde98ee17ae345cb5f6b5e2c27f5033e8ce76020604051600184018152a1604051602081019260043584524260408301526040825281606081011067ffffffffffffffff60608401111761064657602093606083016040528251902061046a6060840161188e565b600435606084015260018060a01b03821660808401524260a08401526103e860c08401526109c460e0840152612ee061010084015260016101208401526101408301525f6101608301525f6101808301525f6101a0830152600183015f5260098452600a60405f20606084015181556001810160018060a01b036080860151166001600160601b0360a01b82541617905560a0840151600282015560c0840151600382015560e0840151600482015561010084015160058201556105446101208501511515600683019060ff801983541691151516179055565b610140840151600782015561056f6101608501511515600883019060ff801983541691151516179055565b61018084015160098201556101a0840151910180546001600160a01b0319166001600160a01b039283161790556004355f908152600a8652604080822060018701908190559284168252600b875290206105c991906119b6565b60018060a01b0381165f52600c84526105e86001840160405f206119b6565b61012060c083015192015115156040519242845285840152604083015260018060a01b031690600435907f532b72f3e5fcc2cb1fd0ff57ffad6749cffd1d94691e6603d02b7792d91d35cb60606001860192a4600160405191018152f35b634e487b7160e01b5f52604160045260245ffd5b0151905085806103df565b601f19821695835f5260205f20915f5b8881106106af57508360019596979810610697575b505050811b0190556103f3565b01515f1960f88460031b161c1916905585808061068a565b91926020600181928685015181550194019201610675565b825f5260205f20601f830160051c810160208410610701575b601f830160051c820181106106f65750506103c3565b5f81556001016106e0565b50806106e0565b60405160208180610744630a85bd0160e11b958683523360048401525f602484015260018801604484015260806064840152608483019061174a565b03815f6001600160a01b0389165af15f91816107f8575b506107c257833d156107ba573d90610772826118e9565b9161078060405193846118c7565b82523d5f602084013e5b815191826107b357604051633250574960e11b81526001600160a01b0383166004820152602490fd5b6020915001fd5b60609061078a565b6001600160e01b031916036107d7578361038f565b604051633250574960e11b81526001600160a01b0383166004820152602490fd5b9091506020813d602011610835575b81610814602093836118c7565b8101031261020e57516001600160e01b03198116810361020e57908661075b565b3d9150610807565b6040516339e3563760e11b81525f6004820152602490fd5b610879600185015f52600460205260405f206001600160601b0360a01b8154169055565b805f52600360205260405f205f19815401905561031e565b634e487b7160e01b5f52601160045260245ffd5b60405162461bcd60e51b815260206004820152601860248201527f496e76616c69642070726f6475636572206164647265737300000000000000006044820152606490fd5b60405162461bcd60e51b815260206004820152602960248201527f436572746966696361746520616c7265616479206d696e74656420666f7220746044820152680d0d2e640c4c2e8c6d60bb1b6064820152608490fd5b3461020e5760208060031936011261020e5760043590815f526002815260018060a01b036109768160405f2054161515611973565b825f526009825260ff600860405f20015416610a415761099583611db1565b33911603610a0b575f82815260099182905260409081902060088101805460ff1916600117905542928101839055600a0180546001600160a01b03191633908117909155815190815260208101929092527fd78142b2bccc2deb0218fae83ecfda12f762885cc799689bb5fe912c11286bdc91a2005b6064906040519062461bcd60e51b82526004820152600f60248201526e2737ba103a37b5b2b71037bbb732b960891b6044820152fd5b60405162461bcd60e51b815260048101839052601c60248201527f436572746966696361746520616c726561647920636f6e73756d6564000000006044820152606490fd5b3461020e57602036600319011261020e57610ab9610aa5600435611eb3565b60405191829160208352602083019061174a565b0390f35b3461020e57608036600319011261020e57610ad661176f565b610ade611785565b6064359167ffffffffffffffff831161020e573660238401121561020e57610b13610b1d933690602481600401359101611905565b9160443591611c1d565b005b3461020e575f36600319011261020e57600d546040516001600160a01b039091168152602090f35b3461020e57604036600319011261020e57610b6061176f565b602435908115159081830361020e573315610bf7576001600160a01b0316918215610bde57610bb090335f52600560205260405f20845f5260205260405f209060ff801983541691151516179055565b6040519081527f17307eab39ab6107e8899845ad3d59bd9653f200f220920489ca2b5937696c3160203392a3005b604051630b61174360e31b815260048101849052602490fd5b60405163a9fbf51f60e01b81525f6004820152602490fd5b3461020e57602036600319011261020e57610c2861176f565b610c30611e87565b6001600160a01b03908116908115610c7e57600d54826001600160601b0360a01b821617600d55167f0e4cd9140b74da63cf33eda966b175a70a72067cc7d3b90cac5b9070b5fc5fc05f80a3005b60405162461bcd60e51b815260206004820152601860248201527f496e76616c6964207265676973747279206164647265737300000000000000006044820152606490fd5b3461020e57602036600319011261020e576004355f52600a602052602060405f2054604051908152f35b3461020e575f36600319011261020e576040515f60018260015492610d118461193b565b92838352602094856001821691825f14610dab575050600114610d50575b50610d3c925003836118c7565b610ab960405192828493845283019061174a565b84915060015f527fb10e2d527612073b26eecdfd717e6a320cf44b4afac2b0732d9fcbe2b7fa0cf6905f915b858310610d93575050610d3c935082010185610d2f565b80548389018501528794508693909201918101610d7c565b60ff191685820152610d3c95151560051b8501019250879150610d2f9050565b3461020e57604036600319011261020e57610de461176f565b6001600160a01b03165f908152600c602052604090208054602435919082101561020e57602091610e149161180b565b90546040519160031b1c8152f35b3461020e575f36600319011261020e576007546040516001600160a01b039091168152602090f35b3461020e57602036600319011261020e576004355f52600960205260405f208054610ab960018060a01b03806001850154169360028101549160038201546004830154600584015460ff6006860154169160078601549360ff60088801541695600a600989015498015416976040519b8c9b8c611834565b3461020e57602036600319011261020e57610edb61176f565b610ee3611e87565b6001600160a01b03908116908115610f3157600e54826001600160601b0360a01b821617600e55167ff2ad61fadb17da686f7cf7b2730896620648788cc62b27e57059fe536f4a04155f80a3005b60405162461bcd60e51b815260206004820152601860248201527f496e76616c6964207665726966696572206164647265737300000000000000006044820152606490fd5b3461020e5760208060031936011261020e576001600160a01b03610f9861176f565b165f52600c60205260405f20906040519081602084549182815201935f5260205f20915f905b828210610fe157610ab985610fd5818903826118c7565b6040519182918261179b565b835486529485019460019384019390910190610fbe565b3461020e575f36600319011261020e576020600854604051908152f35b3461020e575f36600319011261020e5761102d611e87565b600780546001600160a01b031981169091555f906001600160a01b03167f8be0079c531659141344cd1fd0a4f28419497f9722a3daafe3b4186f6b6457e08280a3005b3461020e57602036600319011261020e576001600160a01b0361109161176f565b1680156110ae575f526003602052602060405f2054604051908152f35b6040516322718ad960e21b81525f6004820152602490fd5b3461020e57602036600319011261020e5760206110e4600435611db1565b6040516001600160a01b039091168152f35b3461020e575f36600319011261020e57600e546040516001600160a01b039091168152602090f35b3461020e57610b1d61112f366117d6565b906040519261113d846118ab565b5f8452611c1d565b3461020e57602036600319011261020e576004355f818152600260205260409020546001600160a01b03919061117e9083161515611973565b5f52600960205260405f2090610ab96101406040519361119d8561188e565b80549384865280600183015416958660208201526002830154806040830152600384015480606084015260048501548060808501526005860154918260a086015260ff6006880154161515938460c08701526007880154958660e082015260ff60088a01541615159788610100830152600a60098b01549a8b610120850152015416998a9101526040519b8c9b8c611834565b3461020e57604036600319011261020e5761124961176f565b6001600160a01b03165f908152600b602052604090208054602435919082101561020e57602091610e149161180b565b3461020e57602036600319011261020e576020600435805f526002825260018060a01b03906112af8260405f2054161515611973565b5f526009825260405f20906040516112c68161188e565b825481528160018401541684820152600283015460408201526003830154606082015260048301546080820152600583015460a082015261014060ff6006850154161515928360c0840152600785015460e0840152600a60ff60088701541615958615610100860152600981015461012086015201541691015281611351575b506040519015158152f35b905082611346565b3461020e57610b1d61136a366117d6565b916119f8565b3461020e57602036600319011261020e576004355f818152600260205260409020546001600160a01b0391906113a99083161515611973565b5f52600960205260405f206040516113c08161188e565b815481528260018301541660208201526002820154604082015261014060038301549360608301948552600a600485015494856080860152600581015460a086015260ff600682015416151560c0860152600781015460e086015260ff60088201541615156101008601526009810154610120860152015416910152612710908082039282841161089157518084029384041491141715610891576020906103e860405191048152f35b3461020e5760208060031936011261020e576001600160a01b0361148c61176f565b165f52600b60205260405f20906040519081602084549182815201935f5260205f20915f905b8282106114c957610ab985610fd5818903826118c7565b8354865294850194600193840193909101906114b2565b3461020e57604036600319011261020e576114f961176f565b60243561150581611db1565b331515806115ae575b80611585575b61156d576001600160a01b039283169282918491167f8c5be1e5ebec7d5bd14f71427d1e84f3dd0314c0f7b2291e5b200ac8c7c3b9255f80a45f90815260046020526040902080546001600160a01b0319169091179055005b60405163a9fbf51f60e01b8152336004820152602490fd5b5060018060a01b0381165f52600560205260405f20335f5260205260ff60405f20541615611514565b506001600160a01b03811633141561150e565b3461020e57602036600319011261020e576004356115de81611db1565b505f526004602052602060018060a01b0360405f205416604051908152f35b3461020e575f36600319011261020e576040515f8054908261161e8361193b565b91828252602093600190856001821691825f14610dab57505060011461164b5750610d3c925003836118c7565b5f808052859250907f290decd9548b62a8d60345a988386fc84ba6bc95484008f6362f93160ef3e5635b85831061168c575050610d3c935082010185610d2f565b80548389018501528794508693909201918101611675565b3461020e57602036600319011261020e576004359063ffffffff60e01b821680920361020e57602091632483248360e11b81149081156116e6575b5015158152f35b6380ac58cd60e01b811491508115611718575b8115611707575b50836116df565b6301ffc9a760e01b14905083611700565b635b5e139f60e01b811491506116f9565b5f5b83811061173a5750505f910152565b818101518382015260200161172b565b9060209161176381518092818552858086019101611729565b601f01601f1916010190565b600435906001600160a01b038216820361020e57565b602435906001600160a01b038216820361020e57565b60209060206040818301928281528551809452019301915f5b8281106117c2575050505090565b8351855293810193928101926001016117b4565b606090600319011261020e576001600160a01b0390600435828116810361020e5791602435908116810361020e579060443590565b8054821015611820575f5260205f2001905f90565b634e487b7160e01b5f52603260045260245ffd5b99959197936101409995919c9b97936101608c019d8c5260018060a01b03809a1660208d015260408c015260608b015260808a015260a0890152151560c088015260e0870152151561010086015261012085015216910152565b610160810190811067ffffffffffffffff82111761064657604052565b6020810190811067ffffffffffffffff82111761064657604052565b90601f8019910116810190811067ffffffffffffffff82111761064657604052565b67ffffffffffffffff811161064657601f01601f191660200190565b929192611911826118e9565b9161191f60405193846118c7565b82948184528183011161020e578281602093845f960137010152565b90600182811c92168015611969575b602083101461195557565b634e487b7160e01b5f52602260045260245ffd5b91607f169161194a565b1561197a57565b60405162461bcd60e51b8152602060048201526014602482015273151bdad95b88191bd95cc81b9bdd08195e1a5cdd60621b6044820152606490fd5b908154916801000000000000000083101561064657826119de9160016119f69501815561180b565b90919082549060031b91821b915f19901b1916179055565b565b600754909392916001600160a01b039182163303611bb95781168015611c05573315158080611bfe575b611bb957835f52602092600284526040968282895f20541693611b2b575b5082611afa575b835f5260038552875f2060018154019055855f5260028552875f20846001600160601b0360a01b8254161790558584847fddf252ad1be2c89b69c2b068fc378daa952ba7f163c4a11628f55a4df523b3ef5f80a41690818103611ad7575091600c91836119f6969794611ac0575b505f52525f206119b6565b5f52828252611ad185855f20611deb565b5f611ab5565b60649250848751926364283d7b60e01b8452600484015260248301526044820152fd5b5f86815260046020526040812080546001600160a01b03191690558381526003865288902080545f19019055611a47565b80611b78575b15611b3c575f611a40565b878684611b59576024915190637e27328960e01b82526004820152fd5b905163177e802f60e01b81523360048201526024810191909152604490fd5b503383148015611b9d575b80611b315750855f52600485523382895f20541614611b31565b50825f5260058552875f20335f52855260ff885f205416611b83565b60405162461bcd60e51b815260206004820152601e60248201527f5342543a20546f6b656e206973206e6f6e2d7472616e7366657261626c6500006044820152606490fd5b505f611a22565b604051633250574960e11b81525f6004820152602490fd5b60075492936001600160a01b039384163303611bb957611c3e8584846119f8565b823b611c88575b50821680611c6e575b50169081611c5a575050565b6119f6915f52600c60205260405f206119b6565b5f52600c602052611c828360405f20611deb565b5f611c4e565b93918391611ccf9694821695604051630a85bd0160e11b91828252336004830152858416602483015286604483015260806064830152818060209b8c93608483019061174a565b03815f8c5af15f9181611d71575b50611d3a5788883d15611d32573d91611cf5836118e9565b92611d0360405194856118c7565b83523d5f8285013e5b82519283611d2d57604051633250574960e11b815260048101849052602490fd5b019050fd5b606091611d0c565b90919395975063ffffffff60e0979395971b1603611d59575082611c45565b60249060405190633250574960e11b82526004820152fd5b9091508981813d8311611daa575b611d8981836118c7565b8101031261020e57516001600160e01b03198116810361020e57905f611cdd565b503d611d7f565b5f818152600260205260409020546001600160a01b0316908115611dd3575090565b60249060405190637e27328960e01b82526004820152fd5b905f5b825480821015611e81578290611e04838661180b565b929054600393841b1c14611e1c575050600101611dee565b909392505f1991828201918211610891576119de611e3d611e4a938661180b565b905490871b1c918561180b565b81548015611e6d57810192611e5f848461180b565b81939154921b1b1916905555565b634e487b7160e01b5f52603160045260245ffd5b50505050565b6007546001600160a01b03163303611e9b57565b60405163118cdaa760e01b8152336004820152602490fd5b611ebc81611db1565b506040805191611ecb836118ab565b5f8352805f52602060068152825f20938351945f86825491611eec8361193b565b9283835286830194600191886001821691825f14611fdc575050600114611f9f575b5050611f1c925003876118c7565b8151958615611f95578051611f585750505050611f3a919250611db1565b505f8151611f47816118ab565b5251611f52816118ab565b5f815290565b9091929350611f8686611f77611f929751988996888089019101611729565b84019151809386840190611729565b010380845201826118c7565b90565b9550505050505090565b8792505f52815f20905f915b858310611fc3575050611f1c93508201015f80611f0e565b8194848483969596549201015201910189928792611fab565b9250935050611f1c94915060ff19168552151560051b8201015f80611f0e56fea2646970667358221220ffa1417f03378573bf956dc181e830ee72263d8c2f5089a3209b9228662ed63c64736f6c63430008180033",
  "linkReferences": {},
  "deployedLinkReferences": {}
}